:10099800021B0000021500000219000002170000E7
:1006D600120A34120A461209F2D2AF20B216B297A3
:1006E600E51A451970047F0180027F007519008F95
:1006F6001A30B2FD120A7330986BAF99EF1203915C
:10070600072D42072846073C470746480741490741
:100716004B4A07324C073752075057075A580000C2
:100726000766120A87803C120A908037120AE18017
:1007360032120AD8802D120AA28028120AAB802310
:10074600120AB4801E120ABD8019751900751A01A5
:10075600D297800FE4F519F51A120A99C297800309
:10076600120A99D2ACD3E5169410E515648094A7C5
:10077600403A120016120A68B296AF8DEFAD8BFCA6
:10078600EC1202C97B287A7E790C783D12011EE4B0
:10079600FBFAF978401202271203028E1B8F1CE423
:1007A600F58DF58BF515F516F517F5180516E516FD
:1007B60070020515E51A451970030206E1D3E51C1A
:1007C6009419E51B94005012E5184517700C120891
:1007D600E97517007518010206E11203B70206E172
:100A3400438901758AA4758CFFC28DD28CD2A9D248
:020A4400B922D5
:100A4600438910E4F58BF58DC28FC28ED2ABD2BB33
:010A5600227D
:03001300020022C6
:0100220032AB
:03000B000209C621
:1009C600C0E0C0D0758AA4758CFF0525E525C394C3
:1009D600644003752500E525C395245006D290D2C0
:0C09E600958004C290C295D0D0D0E032C1
:090A7E0075242312000E020B0383
:090A870075243212000E020B036B
:090A9000752432120AF9020B0868
:090A9900E4F524120AFE020B0D23
:090AA20075244B120B03020AFE3D
:090AAB0075244B12000E020B0D24
:090AB40075244B120B08020AFE26
:090ABD0075244B120AF9020B0D1D
:090AC60075246412000E020B08F5
:090ACF00752464120B03020AF9FC
:090AD80075244112000E020B0806
:090AE100752441120B03020AF90D
:05000E00C291D2922214
:050AF900D291C292221F
:050AFE00C291C292222A
:050B0300D293C2942210
:050B0800C293D294220B
:050B0D00C293C2942216
:0809A800021F0000021D000007
:080AEA007F5A7EA3DEFEDFFC53
:010AF20022E1
:040A0A007FE07E2EDD
:100A0E00EF1FAC0670011E4C60060000000080F067
:010A1E0022B5
:1005940030800C308109308206308303120A7E20B9
:1005A400801B208118308215208312120AAB208010
:1005B4000C208109208206208303120A7E208021D8
:1005C40030811E20821B208318120A99120AA2125B
:1005D4000AEA20800C208109208206208303120A63
:1005E4007E30802430812120821E20831B120A7ECB
:1005F400120AEA20801220810F20820C2083091223
:100604000A99120AEA120ACF20802420812130821A
:100614001E30831B120A7E120AEA20801220810FE8
:1006240020820C208309120A99120AEA120AC6309F
:1006340080092081062082033083183080093081AC
:100644000620820330830C30802430812130821EC6
:1006540020831B120A7E120AEA20801220810F20B6
:10066400820C208309120A99120AEA120ACF208006
:100674000920810620820320831820800920810616
:1006840030820320830C20802430812130821E306C
:10069400831B120A7E120AEA20801220810F208214
:1006A4000C208309120A99120AEA120AC620800F42
:1006B40030810C308209208306308303120AC6205D
:1006C400800F30810C308209208306308003120AA7
:0206D400CF2233
:1008720020800920810620820330836A208009209B
:100882008106308203308324208009208106208261
:100892000320831820800920810630820320830CE4
:1008A20020800E30810B308208308305120AD880F6
:1008B200BF208009308106208203308324308009E2
:1008C200208106208203308318308009308106207F
:1008D200820330830C30809830819530829220835D
:0708E2008F120AE1808A2257
:1003B70020800920810620820330830C3080123090
:1003C700810F30820C308309E520451F7003020A34
:1003D7007E20801220810F30820C208309E5204582
:1003E7001F7003020AC620801230810F20820C2062
:1003F7008309E520451F7003020ACF308009208159
:100407000630820330830C20801230810F30820C3B
:10041700208309E520451F7003020A8730800930D1
:1004270081062082033083243080093081063082A0
:10043700033083182080030204D73081030204D7D6
:100447003082030204D73083030204D720800920B7
:100457008106308203208324208009308106308280
:100467000320831820800920810620820320830C23
:1004770020801E20811B308218208315120A7E756A
:100487001F007520012080C42081C12082BE2083E7
:10049700BB7F707E17120A0E20803220812F2082A8
:1004A7002C2083292080092081062082033083188D
:1004B70030800920810620820330830C30800E3083
:1004C700810B208208208305120AE180D702058A62
:1004D7002080092081063082032083242080093070
:1004E7008106308203208318308003020590308113
:1004F70003020590308203020590208303020590D2
:10050700208009208106308203208324208009303F
:1005170081063082032083182080092081062082EB
:100527000320830C20801E20811B30821820831516
:10053700120A7E751F007520012080C42081C1200A
:1005470082BE2083BB7F707E17120A0E2080342064
:10055700813120822E20832B208009208106208252
:100567000330831820800920810620820320830C12
:1005770020800E20810B308208308305120AD88034
:0D058700D78000E4F51FF52022120A99220A
:1008E900120ACF7F107E27120A0E120A7E120A0AF6
:1008F900120AC67F107E27120A0E120A7E7F207EF8
:100909004E120A0E120AC6120A0A120A7E120A0A9E
:100919002080092081062082033083183080092035
:10092900810620820330830C30800E30810B2082B7
:0A09390008208305120ACF80D722A0
:1009B000020C0000020A0000010E00040F000000FB
:0509C000000208001414
:050AF300007F06DFFE9C
:010AF80022DB
:100A5700EF1FAC0670011E4C60060000000080F01E
:010A6700226C
:10094300D2A4120AF3C2A430A54AC28EAF8DEFFE21
:10095300AD8B7C00E42DFDEC3EFCE41202C97B96DA
:100963007A43790B783D12011EE4FBFAF9784012C1
:100973000227E4FBFA7980783F12002D1203028EDE
:10098300138F14D3E5099514E50895134003020A60
:050993009912059422F9
:0C001600D2A47F0A7E00120A57C2A42266
:0B0A680030A5FDD28E20A5FDC28E221D
:1009F20075C83453877F75CDFF75CCFD75CBFF75F8
:080A0200CAFD759850D2AC2228
:100A1F0075C80453877F75CDFF75CCFF75CBFF75F8
:050A2F00CAA4D2BD22A3
:03002300020003D5
:08000300C298859921C2AC32BC
:0B0A7300C2ACC2988599213098FD228A
:1000260002036EE86480F8E933E83360110460F097
:10003600ED33EC337009E8FCE9FDEAFEEBFF220440
:1000460060DED3EB9FEA9EE99DE8C2E78CF0C2F73B
:1000560095F0400CE8CCF8E9CDF9EACEFAEBCFFB07
:1000660012033985D0F05804700320D5B3E8047024
:10007600075002B2D502037892D5EC0460F7E4CCBF
:10008600C0E0C398F8603B94186008400DD0E0FBD0
:10009600020350E4FBFAC9FC8028E830E406E4C910
:1000A600FBE4CAFCE830E305E4C9CACBFCE8540724
:1000B6006010F8C3E913F9EA13FAEB13FBEC13FC2F
:1000C600D8F130F52FC3E49CFCEF9BFFEE9AFEEDD2
:1000D60099FDD0E0FBEF4E4D4C701222DB0302037C
:1000E60075EC2CFCEF33FFEE33FEED33FDED30E720
:1000F600EB020350EF2BFFEE3AFEED39FDD0E0FBAD
:1001060050130BBB0003020378ED13FDEE13FEEF55
:0801160013FFEC13FC0203507F
:10011E00EC4D6011E8497017ED33EC3304600DE4DB
:10012E00FCFFFEFD22E933E8330470F802036E1281
:10013E00033958046009E4CC248150062850090282
:10014E000378284003020375C0E0EB4A7044B9807F
:10015E0006D0E0FB020364EF4E701CBD8008EBFF7F
:10016E00EAFEE9FD80EBE98DF0A4FEE5F002020760
:10017E00E9CDF9EAFEEBFFEF89F0A4FCE5F0CE89BC
:10018E00F0A42EFFE435F0CD89F0A42DFEE435F079
:10019E008067EF4E7005BD80D780C3EF8BF0A4ACA7
:1001AE00F0EE8BF0A42CFCE435F0F8EF8AF0A42CE2
:1001BE00E5F038FCE433CB8DF0A42CFCE5F03BF8F5
:1001CE00EE8AF0A42CFCE5F038F8E433CF89F0A4E5
:1001DE002CFCE5F038CF3400CE89F0A42FFFE5F0EB
:1001EE003EFEE433C98DF0A42EFEE5F039CD8AF043
:1001FE00A42FFFE5F03EFEE43DFD33D0E0FB5007BB
:10020E000BBB000F020378EC2CFCEF33FFEE33FE3A
:06021E00ED33FD02035068
:10022400020378EC5D046005E85904700302036E70
:10023400120339580460F6EC4860F2EC7004FDFED9
:10024400FF22C860DB2481C85009C39860025006AD
:100254000203759850CAF582E9294B4A7005AB82AE
:1002640002036475F0007C1A7880C3EF9BEE9AED6C
:1002740099400DC3EF9BFFEE9AFEED99FDE842F025
:10028400DC23ACF0D0E0FFD0E0FED0E0FDAB822078
:10029400E7101BEB60BAEC2CFCEF33FFEE33FEED02
:1002A40033FD020350E803F830E705C0F075F000B1
:1002B400EF2FFFEE33FEED33FD40B830E7C280AAE6
:1002C40075F020800E75F010800575F0087D007EB5
:1002D400007F003392D530D503120383EC334010F2
:1002E400EF33FFEE33FEED33FDEC33FCD5F0ED22BE
:0E02F400E5F0247EA2D513CC92E7CDCEFF22FA
:10030200EDD2E7CD33EC3392D524814006E4FFFEF3
:10031200FDFC22FCE4CFCECDCC24E0501174FF8052
:10032200EDC3CC13CCCD13CDCE13CECF13CF0470EF
:07033200F030D5DE02038369
:10033900E9D2E7C933E833F892D5EDD2E7CD33EC0A
:0703490033FC5002B2D52283
:10035000EC30E7100FBF000C0EBE00080DBD00040E
:100360000BEB6014A2D5EB13FCED92E7FD2274FFBA
:10037000FCFDFEFF22E480F8A2D574FF13FC7D8013
:03038000E480EF27
:030000000207E60E
:0C07E600787FE4F6D8FD75812502082D0F
:0E038300C3E49FFFE49EFEE49DFDE49CFC228B
:10039100D083D082F8E4937012740193700DA3A3FB
:1003A10093F8740193F5828883E47374029368600F
:0603B100EFA3A3A380DF0F
:1007F2000206D6E493A3F8E493A34003F68001F241
:1008020008DFF48029E493A3F85407240CC8C33307
:10081200C4540F4420C8834004F456800146F6DFD6
:10082200E4800B0102040810204080900998E47EC5
:10083200019360BCA3FF543F30E509541FFEE493CB
:10084200A360010ECF54C025E060A840B8E493A392
:10085200FAE493A3F8E493A3C8C582C8CAC583CABD
:10086200F0A3C8C582C8CAC583CADFE9DEE780BE75
:0109C5000031
:00000001FF
